S01B00006973655F6D6F746F725F6472697665725F69702E7372656315
S11300000C9434000C9451000C9451000C94510045
S11300100C94FA000C9451000C9451000C9451006F
S11300200C9451000C9451000C9451000C94510008
S11300300C9451000C9451000C9451000C945100F8
S11300400C9451000C9451000C9451000C945100E8
S11300500C9451000C9451000C9451000C945100D8
S11300600C946C000C94510011241FBECFEFD8E007
S1130070DEBFCDBF11E0A0E0B1E0EAEAF9E002C0E2
S113008005900D92A831B107D9F715E0A8E1B1E0C8
S113009001C01D92A832B107E1F70E9461010C94DE
S11300A0D3040C9400009093190180931801709369
S11300B01B0160931A010895F894880F8093BA0085
S11300C085EC8093BC0078940895F8941092BC0059
S11300D01092BA00789408951F920F920FB60F925F
S11300E011242F933F934F935F936F937F938F9339
S11300F09F93AF93BF93EF93FF938091B90090E0E8
S1130100887F90708038910569F0813891051CF4DE
S1130110009729F12AC0883A910579F0883B910526
S113012021F514C08091BB00E0911801F0911901F0
S1130130099585EC8093BC001BC0E0911A01F091F5
S11301401B01099585EC8093BC0012C0E0911A0153
S1130150F0911B01099585EC8093BC0009C0ECEB80
S1130160F0E0108285EC808303C085EC8093BC00B2
S1130170FF91EF91BF91AF919F918F917F916F917B
S11301805F914F913F912F910F900FBE0F901F9051
S11301901895089540911C0150911D0160911E0114
S11301A070911F012091160130911701ADB7BEB7B0
S11301B01A970FB6F894BEBF0FBEADBFEDB7FEB72A
S11301C0319612969C938E93119780E091E09383DD
S11301D082834483558366837783318720870E9493
S11301E0FC01EDB7FEB73A960FB6F894FEBF0FBE0A
S11301F0EDBF089578941F920F920FB60F921124B9
S11302002F933F938F939F93AF93BF9326B186B160
S113021030E02170307090E08270907095958795F1
S113022028173907A1F080911C0190911D01A0911C
S11302301E01B0911F010197A109B10980931C010E
S113024090931D01A0931E01B0931F0113C08091D0
S11302501C0190911D01A0911E01B0911F010196F6
S1130260A11DB11D80931C0190931D01A0931E013B
S1130270B0931F01BF91AF919F918F913F912F91A7
S11302800F900FBE0F901F901895E8E6F0E0808164
S113029082608083ECE6F0E08081816080830E944C
S11302A07C0180911601909117010E94860117B874
S11302B018B880E169EC70E04AEC50E00E94CA0191
S11302C008950E94450180911601909117010E94A2
S11302D0860180911601909117010197909317015F
S11302E0809316018FE79AE1A6E081509040A040E8
S11302F0E1F700C00000E7CF80EE8AB983EA84BD4D
S113030082E085BD0895880F991F0895CF93DF93E8
S1130310EC01DD2324F4882799278C1B9D0B0E9474
S1130320830187BD88BDDD231CF480E68BB905C03D
S11303301C161D0614F480EE8BB9DF91CF9108953D
S11303408091240590912505009739F4E0912001CE
S1130350F091210184E291E00995E0912405F09166
S11303602505EC5DFE4F8081882341F484E280936F
S1130370BB00109225051092240508958093BB00BC
S113038080912405909125050196909325058093ED
S11303902405089570932301609322015093210151
S11303A0409320010E945C0081EE91E060EA71E0DC
S11303B00E9453000895E0912201F09123010995D0
S11303C008952091260530912705F901EC5DFC4F35
S11303D08083843251F484E293E010820E94DB0132
S11303E0109227051092260508952F5F3F4F3093F2
S11303F02705209326050895AEE0B0E0E2E0F2E0A0
S11304000C94AA040D891E8986E08C831A830983BF
S11304108FEF9FE79E838D83AE01475E5F4FCE01D2
S113042001966F89788D0E941E02EF81F885E00F96
S1130430F11F10822E96E4E00C94C604ADE0B0E007
S1130440E4E2F2E00C949C043C017D876C875A0141
S1130450FC0117821682838181FFC8C12E01089492
S1130460411C511CF3019381EC85FD8593FD85911D
S113047093FF8191FD87EC87882309F4B3C185320A
S113048041F493FD859193FF8191FD87EC8785323B
S113049029F490E0B3010E941204E4CFFF24EE2477
S11304A010E01032B0F48B3269F08C3228F48032D0
S11304B051F0833271F40BC08D3239F0803349F43A
S11304C011602CC01260146029C0186027C010612C
S11304D025C017FD2EC0282F20532A3098F416FF6C
S11304E008C08F2D880FF82EFF0CFF0CF80EF20EAB
S11304F015C08E2D880FE82EEE0CEE0CE80EE20EE1
S113050010620CC08E3221F416FD6CC1106406C05A
S11305108C3611F4106802C0883659F4EC85FD85D8
S113052093FD859193FF8191FD87EC87882309F0E2
S1130530B8CF982F9554933018F09052933038F4E4
S113054024E030E0A20EB31E3FE339830FC08336AC
S113055031F0833781F0833509F05AC022C0F501A8
S11305608081898322E030E0A20EB31E21E0C22EF6
S1130570D12C420114C092E0292E312C2A0C3B1CB0
S1130580F5018080918016FF03C06F2D70E002C0DA
S11305906FEF7FEFC4010E9407046C0151011F77C4
S11305A015C082E0282E312C2A0C3B1CF5018080DA
S11305B0918016FF03C06F2D70E002C06FEF7FEFD4
S11305C0C4010E94FC036C011068510113FD1CC09E
S11305D006C080E290E0B3010E941204EA948E2DDA
S11305E090E0C816D906A8F30FC0F40117FD859151
S11305F017FF81914F0190E0B3010E941204E110B2
S1130600EA940894C108D108C114D10471F7E7C071
S1130610843611F0893651F5F50117FF07C0808142
S11306209181A281B38124E030E008C0808191816E
S1130630AA2797FDA095BA2F22E030E0A20EB31EA0
S1130640012F0F76B7FF08C0B095A09590958195BE
S11306509F4FAF4FBF4F0068BC01CD01A2012AE0FC
S113066030E00E943E04D82ED4183FC0853721F4D0
S11306701F7E2AE030E020C0197F8F36A9F0803732
S113068020F4883509F0AEC00BC0803721F08837DC
S113069009F0A8C001C0106114FF09C0146007C0AC
S11306A014FF08C0166006C028E030E005C020E151
S11306B030E002C020E132E0F50117FF07C060819D
S11306C071818281938144E050E006C06081718130
S11306D080E090E042E050E0A40EB51EA2010E942A
S11306E03E04D82ED418012F0F7706FF09C00E7FC1
S11306F0DF1430F404FF06C002FD04C00F7E02C004
S11307001D2D01C01F2D802F90E004FF0CC0FE01A1
S1130710ED0DF11D2081203311F4097E09C002FF83
S113072006C01E5F05C086789070009709F01F5FB1
S1130730802E992403FD12C000FF0DC0FD2C1E1550
S113074050F4FE0CF11A1E2D06C080E290E0B301B5
S11307500E9412041F5F1E15C0F304C01E1510F47E
S1130760E11A01C0EE2484FE0FC080E390E0B301DF
S11307700E94120482FE1FC081FE03C088E590E03F
S113078010C088E790E00DC0C4018678907000978F
S113079091F081FC02C080E201C08BE207FD8DE292
S11307A090E0B3010E94120406C080E390E0B3011C
S11307B00E941204FA94DF14C0F3DA94F201ED0DEE
S11307C0F11D808190E0B3010E941204DD20A9F79D
S11307D006C080E290E0B3010E941204EA94EE2085
S11307E0C1F740CEF3018681978102C08FEF9FEF5E
S11307F02D96E2E10C94B804FC0105906150704020
S11308000110D8F7809590958E0F9F1F0895FC01D5
S11308106150704001900110D8F7809590958E0F2B
S11308209F1F08950F931F93CF93DF938C01EB01C8
S11308308B8181FF1BC082FF0DC02E813F818C8183
S11308409D812817390764F4E881F9810193F983BC
S1130850E88306C0E885F985802F0995009731F46F
S11308608E819F8101969F838E8302C00FEF1FEFBD
S1130870C801DF91CF911F910F910895FA01AA2722
S1130880283051F1203181F1E8946F936E7F6E5FCF
S11308907F4F8F4F9F4FAF4FB1E03ED0B4E03CD07D
S11308A0670F781F891F9A1FA11D680F791F8A1F60
S11308B0911DA11D6A0F711D811D911DA11D20D0C7
S11308C009F468943F912AE0269F11243019305D81
S11308D03193DEF6CF010895462F4770405D419372
S11308E0B3E00FD0C9F7F6CF462F4F70405D4A33BF
S11308F018F0495D31FD4052419302D0A9F7EACF87
S1130900B4E0A6959795879577956795BA95C9F7B5
S113091000976105710508959B01AC010A2E0694A8
S11309205795479537952795BA95C9F7620F731F61
S1130930841F951FA01D08952F923F924F925F929E
S11309406F927F928F929F92AF92BF92CF92DF92DB
S1130950EF92FF920F931F93CF93DF93CDB7DEB740
S1130960CA1BDB0B0FB6F894DEBF0FBECDBF0994D4
S11309702A88398848885F846E847D848C849B842B
S1130980AA84B984C884DF80EE80FD800C811B8139
S1130990AA81B981CE0FD11D0FB6F894DEBF0FBE68
S10D09A0CDBFED010895F894FFCFD8
S11309AA686920256C642025642061616161616144
S10B09BA61616161610032001A
S9030000FC
