:100000000C9434000C9451000C9451000C94510049
:100010000C949E020C9451000C9451000C945100CD
:100020000C9451000C9451000C9451000C94E90272
:100030000C9451000C9451000C9451000C945100FC
:100040000C9451000C9451000C9451000C945100EC
:100050000C9451000C9451000C9451000C945100DC
:100060000C94B6000C94510011241FBECFEFD8E0C1
:10007000DEBFCDBF11E0A0E0B1E0E4E3F2E102C0F9
:1000800005900D92A630B107D9F715E0A6E0B1E0D2
:1000900001C01D92A432B107E1F70E946B030C94DA
:1000A00018090C9400009093070180930601709347
:1000B0000901609308010895F894880F8093BA00AD
:1000C00085EC8093BC0078940895F894880F809311
:1000D000BA0084EC8093BC0078940895F894109250
:1000E000BC001092BA0078940895ECEBF0E08081A7
:1000F0008823ECF78091B90090E0887F9070803879
:10010000910569F0813891051CF4009729F12AC006
:10011000883A910579F0883B910521F514C08091CA
:10012000BB00E0910601F0910701099584EC8093F2
:10013000BC000895E0910801F0910901099584EC53
:100140008093BC000895E0910801F09109010995A0
:1001500084EC8093BC000895ECEBF0E0108284EC1A
:100160008083089584EC8093BC0008951F920F92C1
:100170000FB60F9211242F933F934F935F936F937A
:100180007F938F939F93AF93BF93EF93FF93809150
:10019000B90090E0887F90708038910569F08138CF
:1001A00091051CF4009729F12AC0883A910579F04D
:1001B000883B910521F514C08091BB00E0910601B8
:1001C000F0910701099585EC8093BC001BC0E0917C
:1001D0000801F0910901099585EC8093BC0012C0DB
:1001E000E0910801F0910901099585EC8093BC002C
:1001F00009C0ECEBF0E0108285EC808303C085EC55
:100200008093BC00FF91EF91BF91AF919F918F912F
:100210007F916F915F914F913F912F910F900FBE02
:100220000F901F901895409110015091110160910D
:100230001201709113012DB73EB7285030400FB610
:10024000F8943EBF0FBE2DBFEDB7FEB73196ADB7E8
:10025000BEB712969C938E93119780E091E09383A2
:10026000828344835583668377830E9441062DB73A
:100270003EB7285F3F4F0FB6F8943EBF0FBE2DBF6D
:1002800008950E941B060E947B0308954F925F927F
:100290006F927F928F929F92AF92BF92CF92DF9296
:1002A000EF92FF920F931F93CF93DF9300D000D074
:1002B000CDB7DEB7C0901001D0901101E0901201CF
:1002C000F0901301409014015090150160901601B8
:1002D00070901701409218015092190160921A0112
:1002E00070921B016091040170910501882777FDD0
:1002F0008095982F0E9404054B015C01C701B6014F
:100300000E9404059B01AC01C501B4010E940004D8
:10031000B62ED72E882EC92E862F9D2DA82DBC2D0A
:100320008093140190931501A0931601B0931701C7
:10033000BC01CD0120E030E040EA53E40E94B40566
:100340001816ECF18B2D9D2DA82DBC2DBC01CD01D7
:1003500020E030E040EA53EC0E9465048823CCF1B1
:100360006091040170910501882777FD8095982F91
:100370000E9404059F772DEC3CEC4CE45DE30E9469
:10038000650488230CF068C060E070E0CB012AE0CF
:1003900037ED43E25CE30E946504882324F15CC0EE
:1003A000882D9C2DA42DBF2DBC01CD0120E030E077
:1003B00040E451EC0E9465048823D4F02CC000E096
:1003C00010E0DD246894D6F80F2EF1E4EF2EF02D26
:1003D00022C000E010E0DD246894D6F80F2EF1EC86
:1003E000EF2EF02D18C000E010E0DD24EE2413C045
:1003F00000E010E0DD246894D6F80F2EF1ECEF2E2B
:10040000F02D09C000E010E0DD246894D6F80F2E2E
:10041000F1E4EF2EF02D802F912FAD2DBE2DBC01DC
:10042000CD010E94D104DC01CB010E947B030F901F
:100430000F900F900F90DF91CF911F910F91FF9030
:10044000EF90DF90CF90BF90AF909F908F907F9074
:100450006F905F904F9008958B2D9D2DA82DBC2DF2
:10046000BC01CD012DEC3CEC4CEC5DE30E94B805E9
:10047000162F072FF82EE92E862F902FAF2DBE2D89
:10048000BC01CD0120E030E0A9010E940104698394
:100490007A838B839C83812F902FAF2DBE2DBC013F
:1004A000CD0120E030E0A9010E94010420E030E00D
:1004B000A9010E94B8059B01AC0169817A818B81F9
:1004C0009C810E940104162F072FF82EE92E8B2DF8
:1004D0009D2DA82DBC2DBC01CD01A30192010E9430
:1004E000000420E030E0A9010E94B8052DEC3CECAE
:1004F0004CEC5DE30E9469049B01AC01812F902FBD
:10050000AF2DBE2DBC01CD010E940104862EC72E49
:10051000482EF92E062F172FD82EE92E862F912F31
:10052000A42DBF2DBC01CD0120E030E040E451E41A
:100530000E94B40518160CF033CF64CF78941F9244
:100540000F920FB60F9211242F933F938F939F9387
:10055000AF93BF9326B186B130E02170307090E048
:10056000827090709595879528173907A1F0809132
:10057000100190911101A0911201B0911301019706
:10058000A109B1098093100190931101A093120168
:10059000B093130113C08091100190911101A091AB
:1005A0001201B09113010196A11DB11D809310019C
:1005B00090931101A0931201B0931301BF91AF91D9
:1005C0009F918F913F912F910F900FBE0F901F9091
:1005D00018951F920F920FB60F9211242F933F93ED
:1005E0004F935F936F937F938F939F93AF93BF933B
:1005F000EF93FF9360910A0170910B0180910C01C0
:1006000090910D010E94040522E637E246EF51E485
:100610000E94B405181654F40E94460110920A0173
:1006200010920B0110920C0110920D0180910A01A1
:1006300090910B01A0910C01B0910D010196A11DAB
:10064000B11D80930A0190930B01A0930C01B0930C
:100650000D01FF91EF91BF91AF919F918F917F918C
:100660006F915F914F913F912F910F900FBE0F901F
:100670001F901895E8E6F0E0808182608083ECE6C8
:10068000F0E08081816080830E94700380910E0180
:1006900090910F010E947B0317B818B85A9A82E014
:1006A0008093800089E18093810080E280936F00D5
:1006B00087EE9DEF909387008093860078948CE07E
:1006C00090E00E947B0384E161E471E043E151E04A
:1006D0000E94CE0308950E943A030E947500FDCF48
:1006E0008AB1806E8AB983EA84BD82E085BD0895AF
:1006F000880F991F0895CF93DF93EC01DD2324F435
:10070000882799278C1B9D0B0E94780387BD88BD85
:10071000DD2314F45F9804C01C161D060CF45F9AC8
:10072000DF91CF9108958091200590912105009748
:1007300039F4E0911C01F0911D0180E291E00995EE
:10074000E0912005F0912105E05EFE4F8081882335
:1007500041F484E28093BB001092210510922005A1
:1007600008958093BB00809120059091210501960A
:100770009093210580932005089570931F01609345
:100780001E0150931D0140931C010E945C0085EEE8
:1007900093E063E973E00E945300089570931F0192
:1007A00060931E0150931D0140931C010E9465003F
:1007B00085EE93E063E973E00E9453000895E091B1
:1007C0001E01F0911F010995089520912205309195
:1007D0002305F901E05EFC4F8083843251F480E20E
:1007E00093E010820E94DF031092230510922205ED
:1007F00008952F5F3F4F30932305209322050895DE
:100800005058BB27AA270ED075C166D130F06BD1E6
:1008100020F031F49F3F11F41EF45BC10EF4E0951B
:10082000E7FB51C1E92F77D180F3BA17620773074D
:100830008407950718F071F49EF58FC10EF4E095CA
:100840000B2EBA2FA02D0B01B90190010C01CA018A
:10085000A0011124FF27591B99F0593F50F4503E35
:1008600068F11A16F040A22F232F342F4427585F27
:10087000F3CF469537952795A795F0405395C9F73F
:100880007EF41F16BA0B620B730B840BBAF09150F7
:10089000A1F0FF0FBB1F661F771F881FC2F70EC096
:1008A000BA0F621F731F841F48F487957795679569
:1008B000B795F7959E3F08F0B3CF9395880F08F052
:1008C0009927EE0F979587950895D9D008F481E080
:1008D00008950CD00FC107D140F0FED030F021F4C4
:1008E0005F3F19F0F0C0511139C1F3C014D198F332
:1008F0009923C9F35523B1F3951B550BBB27AA27A1
:1009000062177307840738F09F5F5F4F220F331F12
:10091000441FAA1FA9F333D00E2E3AF0E0E830D0DE
:1009200091505040E695001CCAF729D0FE2F27D0E1
:10093000660F771F881FBB1F261737074807AB07AF
:10094000B0E809F0BB0B802DBF01FF2793585F4F24
:100950002AF09E3F510568F0B6C000C15F3FECF33E
:10096000983EDCF3869577956795B795F7959F5FE9
:10097000C9F7880F911D9695879597F90895E1E03D
:10098000660F771F881FBB1F621773078407BA079C
:1009900020F0621B730B840BBA0BEE1F88F7E095F7
:1009A000089504D06894B111D9C00895BCD088F0DE
:1009B0009F5790F0B92F9927B751A0F0D1F0660F4B
:1009C000771F881F991F1AF0BA95C9F712C0B13066
:1009D00081F0C3D0B1E00895C0C0672F782F882779
:1009E000B85F39F0B93FCCF3869577956795B395A5
:1009F000D9F73EF490958095709561957F4F8F4F14
:100A00009F4F0895E89409C097FB3EF49095809518
:100A1000709561957F4F8F4F9F4F9923A9F0F92FC4
:100A200096E9BB279395F695879577956795B79542
:100A3000F111F8CFFAF4BB0F11F460FF1BC06F5F28
:100A40007F4F8F4F9F4F16C0882311F096E911C03A
:100A5000772321F09EE8872F762F05C0662371F05B
:100A600096E8862F70E060E02AF09A95660F771F6F
:100A7000881FDAF7880F9695879597F90895990F4B
:100A80000008550FAA0BE0E8FEEF16161706E80758
:100A9000F907C0F012161306E407F50798F0621B79
:100AA000730B840B950B39F40A2661F0232B242B4E
:100AB000252B21F408950A2609F4A140A6958FEF6D
:100AC000811D811D089597F99F6780E870E060E0BF
:100AD00008959FEF80EC089500240A9416161706D7
:100AE00018060906089500240A941216130614061F
:100AF00005060895092E0394000C11F4882352F082
:100B0000BB0F40F4BF2B11F460FF04C06F5F7F4F39
:100B10008F4F9F4F089557FD9058440F551F59F020
:100B20005F3F71F04795880F97FB991F61F09F3FDA
:100B300079F087950895121613061406551FF2CF03
:100B40004695F1DF08C0161617061806991FF1CF53
:100B500086957105610508940895E894BB2766277A
:100B60007727CB0197F908958ADF08F48FEF08956E
:100B70000BD0C0CFB1DF28F0B6DF18F0952309F015
:100B8000A2CFA7CF1124EACFC6DFA0F3959FD1F360
:100B9000950F50E0551F629FF001729FBB27F00D2B
:100BA000B11D639FAA27F00DB11DAA1F649F662780
:100BB000B00DA11D661F829F2227B00DA11D621FCF
:100BC000739FB00DA11D621F839FA00D611D221F89
:100BD000749F3327A00D611D231F849F600D211D6D
:100BE000822F762F6A2F11249F5750408AF0E1F010
:100BF00088234AF0EE0FFF1FBB1F661F771F881F59
:100C000091505040A9F79E3F510570F05CCFA6CFA0
:100C10005F3FECF3983EDCF3869577956795B79543
:100C2000F795E7959F5FC1F7FE2B880F911D96956D
:100C3000879597F90895FC0188279927E8942191D1
:100C40002032E9F3293010F02E30C8F32B3241F076
:100C50002D3239F4689404C00E943906820F911D28
:100C6000219120532A30C0F31EF4909581959F4F17
:100C700008957AE0979F902D879F802D910D1124E4
:100C80000895AEE0B0E0E7E4F6E00C94EF080D89DB
:100C90001E8986E08C831A8309838FEF9FE79E83EA
:100CA0008D83AE01475E5F4FCE0101966F89788DCF
:100CB0000E946306EF81F885E00FF11F10822E96E7
:100CC000E4E00C940B09ADE0B0E0E9E6F6E00C944A
:100CD000E1083C017D876C875A01FC01178216826E
:100CE000838181FFC8C12E010894411C511CF3016E
:100CF0009381EC85FD8593FD859193FF8191FD871F
:100D0000EC87882309F4B3C1853241F493FD8591C2
:100D100093FF8191FD87EC87853229F490E0B30140
:100D20000E945708E4CFFF24EE2410E01032B0F404
:100D30008B3269F08C3228F4803251F0833271F4B6
:100D40000BC08D3239F0803349F411602CC0126031
:100D5000146029C0186027C0106125C017FD2EC07F
:100D6000282F20532A3098F416FF08C08F2D880FA3
:100D7000F82EFF0CFF0CF80EF20E15C08E2D880F0A
:100D8000E82EEE0CEE0CE80EE20E10620CC08E3275
:100D900021F416FD6CC1106406C08C3611F4106885
:100DA00002C0883659F4EC85FD8593FD859193FF4B
:100DB0008191FD87EC87882309F0B8CF982F95544F
:100DC000933018F09052933038F424E030E0A20EC3
:100DD000B31E3FE339830FC0833631F0833781F090
:100DE000833509F05AC022C0F5018081898322E051
:100DF00030E0A20EB31E21E0C22ED12C420114C05D
:100E000092E0292E312C2A0C3B1CF5018080918028
:100E100016FF03C06F2D70E002C06FEF7FEFC401BB
:100E20000E944C086C0151011F7715C082E0282EEA
:100E3000312C2A0C3B1CF5018080918016FF03C0E9
:100E40006F2D70E002C06FEF7FEFC4010E94410878
:100E50006C011068510113FD1CC006C080E290E0D7
:100E6000B3010E945708EA948E2D90E0C816D90667
:100E7000A8F30FC0F40117FD859117FF81914F0171
:100E800090E0B3010E945708E110EA940894C10869
:100E9000D108C114D10471F7E7C0843611F0893646
:100EA00051F5F50117FF07C080819181A281B381BF
:100EB00024E030E008C080819181AA2797FDA095A9
:100EC000BA2F22E030E0A20EB31E012F0F76B7FF3B
:100ED00008C0B095A095909581959F4FAF4FBF4F9B
:100EE0000068BC01CD01A2012AE030E00E94830825
:100EF000D82ED4183FC0853721F41F7E2AE030E079
:100F000020C0197F8F36A9F0803720F4883509F08A
:100F1000AEC00BC0803721F0883709F0A8C001C0EF
:100F2000106114FF09C0146007C014FF08C01660E8
:100F300006C028E030E005C020E130E002C020E13A
:100F400032E0F50117FF07C06081718182819381D2
:100F500044E050E006C06081718180E090E042E0B2
:100F600050E0A40EB51EA2010E948308D82ED4180A
:100F7000012F0F7706FF09C00E7FDF1430F404FF46
:100F800006C002FD04C00F7E02C01D2D01C01F2D32
:100F9000802F90E004FF0CC0FE01ED0DF11D2081BB
:100FA000203311F4097E09C002FF06C01E5F05C090
:100FB00086789070009709F01F5F802E992403FDBA
:100FC00012C000FF0DC0FD2C1E1550F4FE0CF11ACE
:100FD0001E2D06C080E290E0B3010E9457081F5FFB
:100FE0001E15C0F304C01E1510F4E11A01C0EE2452
:100FF00084FE0FC080E390E0B3010E94570882FE98
:101000001FC081FE03C088E590E010C088E790E033
:101010000DC0C40186789070009791F081FC02C0E9
:1010200080E201C08BE207FD8DE290E0B3010E94F7
:10103000570806C080E390E0B3010E945708FA9475
:10104000DF14C0F3DA94F201ED0DF11D808190E020
:10105000B3010E945708DD20A9F706C080E290E0A6
:10106000B3010E945708EA94EE20C1F740CEF30185
:101070008681978102C08FEF9FEF2D96E2E10C945D
:10108000FD08FC010590615070400110D8F7809573
:1010900090958E0F9F1F0895FC0161507040019044
:1010A0000110D8F7809590958E0F9F1F08950F938C
:1010B0001F93CF93DF938C01EB018B8181FF1BC0CA
:1010C00082FF0DC02E813F818C819D8128173907B9
:1010D00064F4E881F9810193F983E88306C0E88527
:1010E000F985802F0995009731F48E819F810196B3
:1010F0009F838E8302C00FEF1FEFC801DF91CF9156
:101100001F910F910895FA01AA27283051F120313B
:1011100081F1E8946F936E7F6E5F7F4F8F4F9F4F8B
:10112000AF4FB1E03ED0B4E03CD0670F781F891FCD
:101130009A1FA11D680F791F8A1F911DA11D6A0F9B
:10114000711D811D911DA11D20D009F468943F914E
:101150002AE0269F11243019305D3193DEF6CF014D
:101160000895462F4770405D4193B3E00FD0C9F713
:10117000F6CF462F4F70405D4A3318F0495D31FD80
:101180004052419302D0A9F7EACFB4E0A6959795D3
:10119000879577956795BA95C9F7009761057105A9
:1011A00008959B01AC010A2E0694579547953795F3
:1011B0002795BA95C9F7620F731F841F951FA01D4D
:1011C00008952F923F924F925F926F927F928F92EB
:1011D0009F92AF92BF92CF92DF92EF92FF920F93C6
:1011E0001F93CF93DF93CDB7DEB7CA1BDB0B0FB6D0
:1011F000F894DEBF0FBECDBF09942A88398848888D
:101200005F846E847D848C849B84AA84B984C88422
:10121000DF80EE80FD800C811B81AA81B981CE0F19
:10122000D11D0FB6F894DEBF0FBECDBFED010895FE
:04123000F894FFCF60
:06123400256C640090012E
:00000001FF
