:100000000C9434000C9451000C9451000C94510049
:100010000C9463020C9451000C9451000C94510008
:100020000C9451000C9451000C9451000C94B102AA
:100030000C9451000C9451000C9451000C945100FC
:100040000C9451000C9451000C9451000C945100EC
:100050000C9451000C9451000C9451000C945100DC
:100060000C949A000C94510011241FBECFEFD8E0DD
:10007000DEBFCDBF11E0A0E0B1E0ECEBF1E102C0EA
:1000800005900D92A430B107D9F725E0A4E0B1E0C6
:1000900001C01D92A432B207E1F70E94D8020C946D
:1000A000DC080C9400009093070180930601709384
:1000B0000501609304010895F894880F8093BA00B5
:1000C00084EC8093BC00789408958091B900887F77
:1000D000803849F018F4882319F128C0883A71F063
:1000E000883BA9F023C08091BB00E0910601F0910C
:1000F0000701099584EC8093BC000895E091040108
:10010000F0910501099584EC8093BC000895E0917D
:100110000401F0910501099584EC8093BC000895D9
:10012000ECEBF0E0108284EC8083089584EC809303
:10013000BC0008951F920F920FB60F9211242F93B7
:100140003F934F935F936F937F938F939F93AF935F
:10015000BF93EF93FF938091B900887F803849F077
:1001600018F4882319F128C0883A71F0883BA9F067
:1001700023C08091BB00E0910601F0910701099531
:1001800085EC8093BC001BC0E0910401F091050157
:10019000099585EC8093BC0012C0E0910401F091B8
:1001A0000501099585EC8093BC0009C0ECEBF0E0FB
:1001B000108285EC808303C085EC8093BC00FF91A6
:1001C000EF91BF91AF919F918F917F916F915F91CF
:1001D0004F913F912F910F900FBE0F901F90189548
:1001E0000E94CC05909315018093140108954091CD
:1001F00018015091190160911A0170911B017F93B0
:100200006F935F934F9320E031E03F932F939F9341
:100210008F930E94F2058DB79EB708960FB6F8949B
:100220009EBF0FBE8DBF08954F925F926F927F92D7
:100230008F929F92AF92BF92CF92DF92EF92FF92F6
:10024000CF93DF93CDB7DEB728970FB6F894DEBF14
:100250000FBECDBF8091180190911901A0911A0194
:10026000B0911B01609118017091190180911A01E0
:1002700090911B010E94AA0469837A838B839C83DB
:100280008090100190901101A0901201B090130184
:100290006091140170911501072E000C880B990BC9
:1002A0000E94AA0429813A814B815C810E948E03BD
:1002B0006B017C0160931001709311018093120116
:1002C0009093130120E030E040EA53E40E945A0585
:1002D00018166CF480E090E0A8E4B2E480930C017E
:1002E00090930D01A0930E01B0930F01ACC020E0DC
:1002F00030E040EA53ECC701B6010E94FB038823BB
:100300006CF480E090E0A8E4B2EC80930C01909350
:100310000D01A0930E01B0930F0195C027E137EBBB
:1003200041ED58E3C701B6010E945F052091080125
:100330003091090140910A0150910B010E948F03F5
:100340002B013C01609308017093090180930A011D
:1003500090930B01A5019401C701B6010E948E0381
:100360002AE037ED43E25CE30E945F0527E137EBCB
:1003700041ED58E30E9400046D837E838F8398874C
:100380002AE037ED43E25CE3C301B2010E945F055E
:10039000A70196010E948F039B01AC016D817E81B4
:1003A0008F8198850E948F036B017C0160930C0103
:1003B00070930D0180930E0190930F0160911401D1
:1003C00070911501072E000C880B990B0E94AA044E
:1003D0009F772DEC3CEC4CE45DE30E94FB0388230B
:1003E0000CF050C069817A818B819C819F772AE0D3
:1003F00037ED43E25CE30E94FB03882394F142C0A3
:1004000080E090E0A8E4B2E480930C0190930D01A9
:10041000A0930E01B0930F0116C020E030E048E435
:1004200052ECC701B6010E94FB03882364F480E00C
:1004300090E0A8E4B2EC80930C0190930D01A0939E
:100440000E01B0930F0160910C0170910D0180912C
:100450000E0190910F010E947204CB010E941B03B8
:100460001DC0109208011092090110920A01109209
:100470000B0110920C0110920D0110920E011092BE
:100480000F01E1CF20E030E048E452E4C701B601BB
:100490000E945A0518160CF0C0CFB2CF28960FB69E
:1004A000F894DEBF0FBECDBFDF91CF91FF90EF90EC
:1004B000DF90CF90BF90AF909F908F907F906F9084
:1004C0005F904F90089578941F920F920FB60F92FD
:1004D00011242F933F934F935F938F939F93AF93E9
:1004E000BF9356B146B1252F217030E041FB8827DC
:1004F00080F990E028173907A1F0809118019091B8
:100500001901A0911A01B0911B010197A109B1092C
:100510008093180190931901A0931A01B0931B01C5
:1005200013C08091180190911901A0911A01B09106
:100530001B010196A11DB11D809318019093190113
:10054000A0931A01B0931B01BF91AF919F918F911E
:100550005F914F913F912F910F900FBE0F901F9081
:1005600018951F920F920FB60F9211240F900FBE85
:100570000F901F901895E8E6F0E0808182608083FC
:10058000ECE6F0E08081816080830E94130380911B
:100590001601909117010E941B0317B818B85A9AB8
:1005A00047EF50E060EF70E084E20E945903089545
:1005B0000E94BB0200E010E0D0E0C0E00F2EFCEB98
:1005C000EF2EF12CF02DA12CB12CC12CD12CF70148
:1005D000808188232CF120E030E040E251E4602F5C
:1005E000712F8D2F9C2F0E945A05181634F40E94EB
:1005F00014010A2D1B2DDC2DCD2D20E030E040E82C
:100600005FE3602F712F8D2F9C2F0E948F03062F89
:10061000172FD82FC92FF2E4FA95F1F700C0D7CFE2
:100620000E946500D4CF8AB1806E8AB983EA84BD06
:1006300082E085BD08959C01992324F42227332765
:10064000281B390B220F331F27BD28BD992314F413
:100650005F980895181619060CF45F9A0895809112
:100660001E0190911F01892B39F4E0912001F09136
:10067000210184E291E00995E0911E01F0911F01B2
:10068000EC5DFE4F8081811108C084E28093BB0045
:1006900010921F0110921E0108958093BB0080915B
:1006A0001E0190911F01019690931F0180931E01DE
:1006B0000895709323016093220150932101409388
:1006C00020010E945C006FE273E080E793E00E94EB
:1006D00053000895E0912201F091230109950895B6
:1006E00020911C0130911D01F901EC5DFC4F8083CC
:1006F000843269F4F901EC5DFC4F108284E293E0EE
:100700000E946A0310921D0110921C0108952F5F30
:100710003F4F30931D0120931C0108955058BB2773
:10072000AA270E94A6030C9420050E94120538F007
:100730000E94190520F039F49F3F19F426F40C9417
:100740000F050EF4E095E7FB0C940905E92F0E94D4
:10075000310558F3BA17620773078407950720F02D
:1007600079F4A6F50C9453050EF4E0950B2EBA2FF0
:10077000A02D0B01B90190010C01CA01A0011124A7
:10078000FF27591B99F0593F50F4503E68F11A1653
:10079000F040A22F232F342F4427585FF3CF4695E4
:1007A00037952795A795F0405395C9F77EF41F1606
:1007B000BA0B620B730B840BBAF09150A1F0FF0FD0
:1007C000BB1F661F771F881FC2F70EC0BA0F621FBC
:1007D000731F841F48F4879577956795B795F795AC
:1007E0009E3F08F0B0CF9395880F08F09927EE0F41
:1007F0009795879508950E94E50408F481E008958F
:100800000E9414040C9420050E94190558F00E94BF
:10081000120540F029F45F3F29F00C9409055111AD
:100820000C9454050C940F050E94310568F399232C
:10083000B1F3552391F3951B550BBB27AA276217DC
:100840007307840738F09F5F5F4F220F331F441FE9
:10085000AA1FA9F335D00E2E3AF0E0E832D091501D
:100860005040E695001CCAF72BD0FE2F29D0660F0A
:10087000771F881FBB1F261737074807AB07B0E84D
:1008800009F0BB0B802DBF01FF2793585F4F3AF053
:100890009E3F510578F00C9409050C9454055F3F78
:1008A000E4F3983ED4F3869577956795B795F795D9
:1008B0009F5FC9F7880F911D9695879597F90895C1
:1008C000E1E0660F771F881FBB1F6217730784075D
:1008D000BA0720F0621B730B840BBA0BEE1F88F76C
:1008E000E09508950E9479046894B1110C94540520
:1008F00008950E94390588F09F5798F0B92F9927DD
:10090000B751B0F0E1F0660F771F881F991F1AF0FA
:10091000BA95C9F714C0B13091F00E945305B1E007
:1009200008950C945305672F782F8827B85F39F006
:10093000B93FCCF3869577956795B395D9F73EF493
:1009400090958095709561957F4F8F4F9F4F08953B
:10095000E89409C097FB3EF4909580957095619559
:100960007F4F8F4F9F4F9923A9F0F92F96E9BB270F
:100970009395F695879577956795B795F111F8CF8B
:10098000FAF4BB0F11F460FF1BC06F5F7F4F8F4FF6
:100990009F4F16C0882311F096E911C0772321F0EC
:1009A0009EE8872F762F05C0662371F096E8862F84
:1009B00070E060E02AF09A95660F771F881FDAF7DB
:1009C000880F9695879597F90895990F0008550F08
:1009D000AA0BE0E8FEEF16161706E807F907C0F0C5
:1009E00012161306E407F50798F0621B730B840BCD
:1009F000950B39F40A2661F0232B242B252B21F4A7
:100A000008950A2609F4A140A6958FEF811D811D46
:100A1000089597F99F6780E870E060E008959FEF80
:100A200080EC089500240A94161617061806090685
:100A3000089500240A941216130614060506089554
:100A4000092E0394000C11F4882352F0BB0F40F4DC
:100A5000BF2B11F460FF04C06F5F7F4F8F4F9F4F1C
:100A6000089557FD9058440F551F59F05F3F71F09E
:100A70004795880F97FB991F61F09F3F79F0879505
:100A80000895121613061406551FF2CF4695F1DF8E
:100A900008C0161617061806991FF1CF869571051E
:100AA000610508940895E894BB2766277727CB0152
:100AB00097F908950E94E50408F48FEF08950E94C5
:100AC00072050C9420050E94120538F00E94190549
:100AD00020F0952311F00C9409050C940F051124B6
:100AE0000C9454050E94310570F3959FC1F3950F46
:100AF00050E0551F629FF001729FBB27F00DB11DA2
:100B0000639FAA27F00DB11DAA1F649F6627B00D31
:100B1000A11D661F829F2227B00DA11D621F739F1A
:100B2000B00DA11D621F839FA00D611D221F749F28
:100B30003327A00D611D231F849F600D211D822F6F
:100B4000762F6A2F11249F5750409AF0F1F0882396
:100B50004AF0EE0FFF1FBB1F661F771F881F9150C3
:100B60005040A9F79E3F510580F00C9409050C9464
:100B700054055F3FE4F3983ED4F3869577956795E7
:100B8000B795F795E7959F5FC1F7FE2B880F911DED
:100B90009695879597F90895FC0188279927E894F9
:100BA00021912032E9F3293010F02E30C8F32B3296
:100BB00041F02D3239F4689404C00E94EA05820F96
:100BC000911D219120532A30C0F31EF490958195F8
:100BD0009F4F08957AE0979F902D879F802D910DCC
:100BE00011240895AEE0B0E0E8EFF5E00C94B3080E
:100BF0000D891E8986E08C831A8309838FEF9FE716
:100C00009E838D83AE01475E5F4F6F89788DCE01E5
:100C100001960E941406EF81F885E00FF11F108203
:100C20002E96E4E00C94CF08ABE0B0E0EAE1F6E009
:100C30000C94A5086C017B018A01FC0117821682C5
:100C4000838181FFCCC1CE0101963C01F6019381E5
:100C5000F70193FD859193FF81917F01882309F42A
:100C6000BAC1853239F493FD859193FF81917F015B
:100C7000853229F4B60190E00E940B08E7CF912C51
:100C8000212C312CFFE1F315D8F08B3279F038F4B8
:100C9000803279F08332A1F4232D20611DC08D3282
:100CA00061F0803369F4232D216016C0832D8260AA
:100CB000382EE32DE4603E2E2AC0F32DF8601DC0CF
:100CC00037FC2DC020ED280F2A3040F08E32B9F4C9
:100CD00036FC81C1232D2064322E19C036FE06C099
:100CE0008AE0989E200D1124922E11C0EAE02E9EDB
:100CF000200D1124222EF32DF0623F2E08C08C36D9
:100D000021F4832D8068382E02C0883641F4F70123
:100D100093FD859193FF81917F018111B3CF982F2E
:100D20009F7D9554933028F40C5F1F4F9FE3998368
:100D30000DC0833631F0833771F0833509F059C027
:100D400021C0F801808189830E5F1F4F882483941E
:100D5000912C530113C02801F2E04F0E511CF801F1
:100D6000A080B18036FE03C0692D70E002C06FEF35
:100D70007FEFC5010E9400084C018201F32DFF772F
:100D80003F2E16C0280122E0420E511CF801A0801F
:100D9000B18036FE03C0692D70E002C06FEF7FEFB7
:100DA000C5010E94F5074C01F32DF0683F2E82012A
:100DB00033FC1BC0822D90E088169906B0F4B60172
:100DC00080E290E00E940B082A94F4CFF50137FCF2
:100DD000859137FE81915F01B60190E00E940B087A
:100DE00021102A9421E0821A91088114910471F74C
:100DF000E8C0843611F0893641F5F80137FE07C0A6
:100E000060817181828193810C5F1F4F08C0608176
:100E10007181072E000C880B990B0E5F1F4FF32D6D
:100E2000FF763F2E97FF09C090958095709561954C
:100E30007F4F8F4F9F4FF0683F2E2AE030E0A30195
:100E40000E944708882E861845C0853731F4232D27
:100E50002F7EB22E2AE030E025C0932D997FB92E47
:100E60008F36C1F018F4883579F0B5C0803719F0A5
:100E7000883721F0B0C0E92FE061BE2EB4FE0DC06E
:100E8000FB2DF460BF2E09C034FE0AC0292F266056
:100E9000B22E06C028E030E005C020E130E002C0FC
:100EA00020E132E0F801B7FE07C0608171818281E4
:100EB00093810C5F1F4F06C06081718180E090E0DC
:100EC0000E5F1F4FA3010E944708882E8618FB2D36
:100ED000FF773F2E36FE0DC0232D2E7FA22E8914C4
:100EE00058F434FE0BC032FC09C0832D8E7EA82E30
:100EF00005C0B82CA32C03C0B82C01C0B92CA4FE8B
:100F00000FC0FE01E80DF11D8081803321F49A2D80
:100F1000997EA92E09C0A2FE06C0B394B39404C062
:100F20008A2D867809F0B394A3FC11C0A0FE06C0F8
:100F3000B21488F4280C922C9B180EC0B21460F4E2
:100F4000B60180E290E00E940B08B394F7CFB21490
:100F500018F42B1802C0982C212CA4FE10C0B60146
:100F600080E390E00E940B08A2FE17C0A1FC03C022
:100F700088E790E002C088E590E0B6010CC08A2DB9
:100F8000867859F0A1FE02C08BE201C080E2A7FC86
:100F90008DE2B60190E00E940B08891438F4B60186
:100FA00080E390E00E940B089A94F7CF8A94F301B3
:100FB000E80DF11D8081B60190E00E940B088110C0
:100FC000F5CF222009F442CEB60180E290E00E94E3
:100FD0000B082A94F6CFF6018681978102C08FEF25
:100FE0009FEF2B96E2E10C94C108FC010590615043
:100FF00070400110D8F7809590958E0F9F1F08952F
:10100000FC016150704001900110D8F780959095D7
:101010008E0F9F1F08950F931F93CF93DF93FB01B4
:10102000238121FD03C08FEF9FEF2CC022FF16C04C
:1010300046815781248135814217530744F4A081AA
:10104000B1819D012F5F3F4F318320838C93268197
:1010500037812F5F3F4F3783268314C08B01EC010C
:10106000FB010084F185E02D0995892BE1F6D8017B
:1010700016968D919C911797019617969C938E9337
:101080001697CE01DF91CF911F910F910895FA012C
:10109000AA27283051F1203181F1E8946F936E7FB7
:1010A0006E5F7F4F8F4F9F4FAF4FB1E03ED0B4E0A8
:1010B0003CD0670F781F891F9A1FA11D680F791FE9
:1010C0008A1F911DA11D6A0F711D811D911DA11DFA
:1010D00020D009F468943F912AE0269F112430190A
:1010E000305D3193DEF6CF010895462F4770405DA5
:1010F0004193B3E00FD0C9F7F6CF462F4F70405D54
:101100004A3318F0495D31FD4052419302D0A9F7AE
:10111000EACFB4E0A6959795879577956795BA95A8
:10112000C9F700976105710508959B01AC010A2E6E
:1011300006945795479537952795BA95C9F7620F45
:10114000731F841F951FA01D08952F923F924F92E9
:101150005F926F927F928F929F92AF92BF92CF9247
:10116000DF92EF92FF920F931F93CF93DF93CDB750
:10117000DEB7CA1BDB0B0FB6F894DEBF0FBECDBFC8
:1011800009942A88398848885F846E847D848C8499
:101190009B84AA84B984C884DF80EE80FD800C81A2
:1011A0001B81AA81B981CE0FD11D0FB6F894DEBF85
:0C11B0000FBECDBFED010895F894FFCFF5
:0411BC00256C64003A
:00000001FF
