:100000000C9434000C9451000C9451000C94510049
:100010000C9448010C9451000C9451000C94510024
:100020000C9451000C9451000C9451000C9451000C
:100030000C9451000C9451000C9451000C945100FC
:100040000C9451000C9451000C9451000C945100EC
:100050000C9451000C9451000C9451000C945100DC
:100060000C94B6000C94510011241FBECFEFD8E0C1
:10007000DEBFCDBF11E0A0E0B1E0E4E9FAE002C0EC
:1000800005900D92A630B107D9F715E0A6E0B1E0D2
:1000900001C01D92A631B107E1F70E94AF010C9497
:1000A00048050C940000909307018093060170931B
:1000B0000901609308010895F894880F8093BA00AD
:1000C00085EC8093BC0078940895F894880F809311
:1000D000BA0084EC8093BC0078940895F894109250
:1000E000BC001092BA0078940895ECEBF0E08081A7
:1000F0008823ECF78091B90090E0887F9070803879
:10010000910569F0813891051CF4009729F12AC006
:10011000883A910579F0883B910521F514C08091CA
:10012000BB00E0910601F0910701099584EC8093F2
:10013000BC000895E0910801F0910901099584EC53
:100140008093BC000895E0910801F09109010995A0
:1001500084EC8093BC000895ECEBF0E0108284EC1A
:100160008083089584EC8093BC0008951F920F92C1
:100170000FB60F9211242F933F934F935F936F937A
:100180007F938F939F93AF93BF93EF93FF93809150
:10019000B90090E0887F90708038910569F08138CF
:1001A00091051CF4009729F12AC0883A910579F04D
:1001B000883B910521F514C08091BB00E0910601B8
:1001C000F0910701099585EC8093BC001BC0E0917C
:1001D0000801F0910901099585EC8093BC0012C0DB
:1001E000E0910801F0910901099585EC8093BC002C
:1001F00009C0ECEBF0E0108285EC808303C085EC55
:100200008093BC00FF91EF91BF91AF919F918F912F
:100210007F916F915F914F913F912F910F900FBE02
:100220000F901F90189540910A0150910B01609119
:100230000C0170910D012091040130910501ADB7C1
:10024000BEB71A970FB6F894BEBF0FBEADBFEDB7DD
:10025000FEB7319612969C938E93119780E091E0B1
:100260009383828344835583668377833187208792
:100270000E947102EDB7FEB73A960FB6F894FEBF32
:100280000FBEEDBF08950E944B020E94C401089565
:1002900078941F920F920FB60F9211242F933F93D1
:1002A0008F939F93AF93BF9326B186B130E02170B7
:1002B000307090E082709070959587952817390777
:1002C000A1F080910A0190910B01A0910C01B091D5
:1002D0000D010197A109B10980930A0190930B01C7
:1002E000A0930C01B0930D0113C080910A0190916D
:1002F0000B01A0910C01B0910D010196A11DB11D42
:1003000080930A0190930B01A0930C01B0930D010F
:10031000BF91AF919F918F913F912F910F900FBE01
:100320000F901F901895E8E6F0E08081826080834E
:10033000ECE6F0E08081816080830E94BA018091C8
:100340000401909105010E94C40117B818B880E11A
:1003500063E471E043E151E00E94190208950E94B4
:10036000930180910401909105010E94C4010E94B3
:100370007500FDCF80EE8AB983EA84BD82E085BD39
:100380000895880F991F0895CF93DF93EC01DD2323
:1003900024F4882799278C1B9D0B0E94C10187BDDF
:1003A00088BDDD231CF480E68BB905C01C161D0634
:1003B00014F480EE8BB9DF91CF91089580911205EE
:1003C00090911305009739F4E0910E01F0910F011F
:1003D00082E191E00995E0911205F0911305EE5E3E
:1003E000FE4F8081882341F484E28093BB00109209
:1003F00013051092120508958093BB008091120599
:10040000909113050196909313058093120508951A
:10041000709311016093100150930F0140930E01EE
:100420000E945C0080E392E06EED71E00E94530058
:100430000895709311016093100150930F01409340
:100440000E010E94650080E392E06EED71E00E9473
:1004500053000895E0911001F0911101099508955C
:100460002091140530911505F901EE5EFC4F808353
:10047000843251F482E193E010820E942A021092A9
:1004800015051092140508952F5F3F4F3093150501
:10049000209314050895FC0188279927E894219159
:1004A0002032E9F3293010F02E30C8F32B3241F01E
:1004B0002D3239F4689404C00E946902820F911DA4
:1004C000219120532A30C0F31EF4909581959F4FBF
:1004D00008957AE0979F902D879F802D910D11248C
:1004E0000895AEE0B0E0E7E7F2E00C941F050D8957
:1004F0001E8986E08C831A8309838FEF9FE79E8392
:100500008D83AE01475E5F4FCE0101966F89788D76
:100510000E949302EF81F885E00FF11F10822E9662
:10052000E4E00C943B05ADE0B0E0E9E9F2E00C94C6
:1005300011053C017D876C875A01FC0117821682E8
:10054000838181FFC8C12E010894411C511CF30115
:100550009381EC85FD8593FD859193FF8191FD87C6
:10056000EC87882309F4B3C1853241F493FD85916A
:1005700093FF8191FD87EC87853229F490E0B301E8
:100580000E948704E4CFFF24EE2410E01032B0F480
:100590008B3269F08C3228F4803251F0833271F45E
:1005A0000BC08D3239F0803349F411602CC01260D9
:1005B000146029C0186027C0106125C017FD2EC027
:1005C000282F20532A3098F416FF08C08F2D880F4B
:1005D000F82EFF0CFF0CF80EF20E15C08E2D880FB2
:1005E000E82EEE0CEE0CE80EE20E10620CC08E321D
:1005F00021F416FD6CC1106406C08C3611F410682D
:1006000002C0883659F4EC85FD8593FD859193FFF2
:100610008191FD87EC87882309F0B8CF982F9554F6
:10062000933018F09052933038F424E030E0A20E6A
:10063000B31E3FE339830FC0833631F0833781F037
:10064000833509F05AC022C0F5018081898322E0F8
:1006500030E0A20EB31E21E0C22ED12C420114C004
:1006600092E0292E312C2A0C3B1CF50180809180D0
:1006700016FF03C06F2D70E002C06FEF7FEFC40163
:100680000E947C046C0151011F7715C082E0282E66
:10069000312C2A0C3B1CF5018080918016FF03C091
:1006A0006F2D70E002C06FEF7FEFC4010E947104F4
:1006B0006C011068510113FD1CC006C080E290E07F
:1006C000B3010E948704EA948E2D90E0C816D906E3
:1006D000A8F30FC0F40117FD859117FF81914F0119
:1006E00090E0B3010E948704E110EA940894C108E5
:1006F000D108C114D10471F7E7C0843611F08936EE
:1007000051F5F50117FF07C080819181A281B38166
:1007100024E030E008C080819181AA2797FDA09550
:10072000BA2F22E030E0A20EB31E012F0F76B7FFE2
:1007300008C0B095A095909581959F4FAF4FBF4F42
:100740000068BC01CD01A2012AE030E00E94B304A0
:10075000D82ED4183FC0853721F41F7E2AE030E020
:1007600020C0197F8F36A9F0803720F4883509F032
:10077000AEC00BC0803721F0883709F0A8C001C097
:10078000106114FF09C0146007C014FF08C0166090
:1007900006C028E030E005C020E130E002C020E1E2
:1007A00032E0F50117FF07C060817181828193817A
:1007B00044E050E006C06081718180E090E042E05A
:1007C00050E0A40EB51EA2010E94B304D82ED41886
:1007D000012F0F7706FF09C00E7FDF1430F404FFEE
:1007E00006C002FD04C00F7E02C01D2D01C01F2DDA
:1007F000802F90E004FF0CC0FE01ED0DF11D208163
:10080000203311F4097E09C002FF06C01E5F05C037
:1008100086789070009709F01F5F802E992403FD61
:1008200012C000FF0DC0FD2C1E1550F4FE0CF11A75
:100830001E2D06C080E290E0B3010E9487041F5F76
:100840001E15C0F304C01E1510F4E11A01C0EE24F9
:1008500084FE0FC080E390E0B3010E94870482FE13
:100860001FC081FE03C088E590E010C088E790E0DB
:100870000DC0C40186789070009791F081FC02C091
:1008800080E201C08BE207FD8DE290E0B3010E949F
:10089000870406C080E390E0B3010E948704FA94C5
:1008A000DF14C0F3DA94F201ED0DF11D808190E0C8
:1008B000B3010E948704DD20A9F706C080E290E022
:1008C000B3010E948704EA94EE20C1F740CEF30101
:1008D0008681978102C08FEF9FEF2D96E2E10C9405
:1008E0002D05FC010590615070400110D8F78095EE
:1008F00090958E0F9F1F0895FC01615070400190EC
:100900000110D8F7809590958E0F9F1F08950F9333
:100910001F93CF93DF938C01EB018B8181FF1BC071
:1009200082FF0DC02E813F818C819D812817390760
:1009300064F4E881F9810193F983E88306C0E885CE
:10094000F985802F0995009731F48E819F8101965A
:100950009F838E8302C00FEF1FEFC801DF91CF91FD
:100960001F910F910895FA01AA27283051F12031E3
:1009700081F1E8946F936E7F6E5F7F4F8F4F9F4F33
:10098000AF4FB1E03ED0B4E03CD0670F781F891F75
:100990009A1FA11D680F791F8A1F911DA11D6A0F43
:1009A000711D811D911DA11D20D009F468943F91F6
:1009B0002AE0269F11243019305D3193DEF6CF01F5
:1009C0000895462F4770405D4193B3E00FD0C9F7BB
:1009D000F6CF462F4F70405D4A3318F0495D31FD28
:1009E0004052419302D0A9F7EACFB4E0A69597957B
:1009F000879577956795BA95C9F700976105710551
:100A000008959B01AC010A2E06945795479537959A
:100A10002795BA95C9F7620F731F841F951FA01DF4
:100A200008952F923F924F925F926F927F928F9292
:100A30009F92AF92BF92CF92DF92EF92FF920F936D
:100A40001F93CF93DF93CDB7DEB7CA1BDB0B0FB677
:100A5000F894DEBF0FBECDBF09942A883988488834
:100A60005F846E847D848C849B84AA84B984C884CA
:100A7000DF80EE80FD800C811B81AA81B981CE0FC1
:100A8000D11D0FB6F894DEBF0FBECDBFED010895A6
:040A9000F894FFCF08
:060A9400256C6400320035
:00000001FF
