S01D00004156525F6D6F746F726472697665725F74657374312E73726563B2
S11300000C9434000C943E000C943E000C943E007E
S11300100C943E000C943E000C943E000C943E0064
S11300200C943E000C943E000C943E000C943E0054
S11300300C943E000C943E000C943E000C943E0044
S11300400C9440000C943E000C943E000C943E0032
S11300500C943E000C943E000C943E000C943E0024
S11300600C943E000C943E0011241FBECFEFD8E048
S1130070DEBFCDBF0E944E000C945B000C940000C8
S11300801F920F920FB60F9211248F9385E886BDAD
S11300908F910F900FBE0F901F90189517B88FEF88
S11300A084B980EE8AB98BB985E886BD85EE87BDB3
S10D00B088BD7894FFCFF894FFCFC9
S9030000FC
