S01700006176725F6D6F746F656472697665722E73726563B5
S11300000C9434000C9446000C9446000C94460066
S11300100C9446000C9446000C9446000C94460044
S11300200C9446000C9446000C9446000C94460034
S11300300C9446000C9446000C9446000C94460024
S11300400C9446000C9446000C9446000C94460014
S11300500C9446000C9446000C9446000C94460004
S11300600C9446000C94460011241FBECFEFD8E038
S1130070DEBFCDBF21E0A0E0B1E001C01D92A230FF
S1130080B207E1F70E9448000C94C0010C940000F0
S113009080EE8AB988E087B983EA84BD82E085BDB1
S11300A0C0EED0E68091000190910101992314F4EF
S11300B0DBB904C0181619060CF4CBB96091000121
S11300C07091010177231CF4719561957109072ED4
S11300D0000C880B990B0E94C7002AE939E949E909
S11300E05FE30E942B010E948F0067BD60910001B5
S11300F07091010177231CF4719561957109072EA4
S1130100000C880B990B0E94C7002AE939E949E9D8
S11301105FE30E942B010E948F0068BDC3CF0E9441
S113012096006894B1110C94250108950E940A0167
S113013088F09F5798F0B92F9927B751B0F0E1F0A4
S1130140660F771F881F991F1AF0BA95C9F714C054
S1130150B13091F00E942401B1E008950C9424017F
S1130160672F782F8827B85F39F0B93FCCF386958D
S113017077956795B395D9F73EF4909580957095EA
S113018061957F4F8F4F9F4F0895E89409C097FB67
S11301903EF490958095709561957F4F8F4F9F4F5A
S11301A09923A9F0F92F96E9BB279395F69587959E
S11301B077956795B795F111F8CFFAF4BB0F11F461
S11301C060FF1BC06F5F7F4F8F4F9F4F16C0882308
S11301D011F096E911C0772321F09EE8872F762F3E
S11301E005C0662371F096E8862F70E060E02AF07F
S11301F09A95660F771F881FDAF7880F969587956B
S113020097F9089557FD9058440F551F59F05F3FD3
S113021071F04795880F97FB991F61F09F3F79F024
S113022087950895121613061406551FF2CF4695A6
S1130230F1DF08C0161617061806991FF1CF869528
S11302407105610508940895E894BB27662777270C
S1130250CB0197F908950E943E010C94AF010E94CE
S1130260A10138F00E94A80120F0952311F00C940C
S113027098010C949E0111240C9425010E94020102
S113028070F3959FC1F3950F50E0551F629FF001E5
S1130290729FBB27F00DB11D639FAA27F00DB11DFE
S11302A0AA1F649F6627B00DA11D661F829F222787
S11302B0B00DA11D621F739FB00DA11D621F839F0E
S11302C0A00D611D221F749F3327A00D611D231FE4
S11302D0849F600D211D822F762F6A2F11249F5732
S11302E050409AF0F1F088234AF0EE0FFF1FBB1F35
S11302F0661F771F881F91505040A9F79E3F5105F4
S113030080F00C9498010C9425015F3FE4F3983E2F
S1130310D4F3869577956795B795F795E7959F5F9D
S1130320C1F7FE2B880F911D9695879597F908952F
S113033097F99F6780E870E060E008959FEF80EC94
S1130340089500240A941616170618060906089537
S113035000240A9412161306140605060895092E9D
S11303600394000C11F4882352F0BB0F40F4BF2B0C
S113037011F460FF04C06F5F7F4F8F4F9F4F08954C
S1070380F894FFCF1B
S9030000FC
