:100000000C9434000C9451000C9451000C94510049
:100010000C9451000C9451000C9451000C9451001C
:100020000C9451000C9451000C9451000C9451000C
:100030000C9451000C9451000C9451000C945100FC
:100040000C9451000C9451000C9451000C945100EC
:100050000C9451000C9451000C9451000C945100DC
:100060000C946C000C94510011241FBECFEFD8E00B
:10007000DEBFCDBF11E0A0E0B1E0E4EBF4E002C0F0
:1000800005900D92A030B107D9F711E0A0E0B1E0E2
:1000900001C01D92A730B107E1F70E94EA000C945D
:1000A00058020C940000909301018093000170931A
:1000B0000301609302010895F894880F8093BA00B9
:1000C00085EC8093BC0078940895F8941092BC005D
:1000D0001092BA00789408951F920F920FB60F9263
:1000E00011242F933F934F935F936F937F938F933D
:1000F0009F93AF93BF93EF93FF938091B90090E0EC
:10010000887F90708038910569F0813891051CF4E2
:10011000009729F12AC0883A910579F0883B91052A
:1001200021F514C08091BB00E0910001F091010124
:10013000099585EC8093BC001BC0E0910201F09111
:100140000301099585EC8093BC0012C0E091020187
:10015000F0910301099585EC8093BC0009C0ECEB9C
:10016000F0E0108285EC808303C085EC8093BC00B6
:10017000FF91EF91BF91AF919F918F917F916F917F
:100180005F914F913F912F910F900FBE0F901F9055
:100190001895809106018093BB0008958093060115
:1001A0008091060190E084569040909305018093E1
:1001B00004010E941C0108958EEC90E069EC70E04F
:1001C0000E94530080E10E945C000E94040180EEC6
:1001D0008AB908950E94DC0030E620EE8091040187
:1001E00090910501009779F489EF90E00197F1F77C
:1001F00000C000003BB989EF90E00197F1F700C023
:1002000000002BB9EBCFFFCF83EA84BD82E085BD30
:1002100008959C01B901882777FD8095982F0E9449
:10022000690126EF38E24CE15FE30E94CD010E94B4
:100230003601862F972F0895CF93DF93EC01DD23AE
:1002400024F4882799278C1B9D0B0E94090187BDE8
:1002500088BDDD231CF480E68BB905C01C161D0685
:1002600014F480EE8BB9DF91CF91089504D0689497
:10027000B1118DC0089570D088F09F5790F0B92FBC
:100280009927B751A0F0D1F0660F771F881F991FEB
:100290001AF0BA95C9F712C0B13081F077D0B1E049
:1002A000089574C0672F782F8827B85F39F0B93F59
:1002B000CCF3869577956795B395D9F73EF49095ED
:1002C0008095709561957F4F8F4F9F4F0895E8946B
:1002D00009C097FB3EF490958095709561957F4F8E
:1002E0008F4F9F4F9923A9F0F92F96E9BB2793953C
:1002F000F695879577956795B795F111F8CFFAF44C
:10030000BB0F11F460FF1BC06F5F7F4F8F4F9F4F7C
:1003100016C0882311F096E911C0772321F09EE8DA
:10032000872F762F05C0662371F096E8862F70E040
:1003300060E02AF09A95660F771F881FDAF7880F1A
:100340009695879597F9089557FD9058440F551F36
:1003500059F05F3F71F04795880F97FB991F61F047
:100360009F3F79F087950895121613061406551FBE
:10037000F2CF4695F1DF08C0161617061806991F2A
:10038000F1CF86957105610508940895E894BB271F
:1003900066277727CB0197F908950BD078C069D0ED
:1003A00028F06ED018F0952309F05AC05FC01124D0
:1003B000EECFCADFA0F3959FD1F3950F50E0551F04
:1003C000629FF001729FBB27F00DB11D639FAA27AA
:1003D000F00DB11DAA1F649F6627B00DA11D661FF9
:1003E000829F2227B00DA11D621F739FB00DA11D1A
:1003F000621F839FA00D611D221F749F3327A00DD4
:10040000611D231F849F600D211D822F762F6A2F6F
:1004100011249F5750408AF0E1F088234AF0EE0FF4
:10042000FF1FBB1F661F771F881F91505040A9F701
:100430009E3F510570F014C0AACF5F3FECF3983E89
:10044000DCF3869577956795B795F795E7959F5F68
:10045000C1F7FE2B880F911D9695879597F9089502
:1004600097F99F6780E870E060E008959FEF80EC67
:10047000089500240A94161617061806090608950A
:1004800000240A9412161306140605060895092E70
:100490000394000C11F4882352F0BB0F40F4BF2BDF
:1004A00011F460FF04C06F5F7F4F8F4F9F4F08951F
:0404B000F894FFCFEE
:00000001FF
