S01F00006973655F6D6F746F726472697665725F73747564696F362E737265637B
S11300000C9434000C9446000C9446000C94460066
S11300100C9446000C9446000C9446000C94460044
S11300200C9446000C9446000C9446000C94460034
S11300300C9446000C9446000C9446000C94460024
S11300400C9446000C9446000C9446000C94460014
S11300500C9446000C9446000C9446000C94460004
S11300600C945A000C94460011241FBECFEFD8E024
S1130070DEBFCDBF21E0A0E0B1E001C01D92A730FA
S1130080B207E1F70E94D1000C9447020C940000DF
S11300909093030180930201709301016093000126
S11300A00895F894880F8093BA0085EC8093BC007F
S11300B0789408951F920F920FB60F9211242F93E4
S11300C03F934F935F936F937F938F939F93AF93DC
S11300D0BF93EF93FF938091B900887F803849F0F4
S11300E018F4882319F128C0883A71F0883BA9F0E4
S11300F023C08091BB00E0910201F09103010995B6
S113010085EC8093BC001BC0E0910001F0910101DB
S1130110099585EC8093BC0012C0E0910001F09138
S11301200101099585EC8093BC0009C0ECEBF0E07B
S1130130108285EC808303C085EC8093BC00FF9122
S1130140EF91BF91AF919F918F917F916F915F914B
S11301504F913F912F910F900FBE0F901F901895C4
S1130160809106018093BB000895809306018091DD
S1130170060190E08456910990930501809304014F
S11301800E94EF00089560EB70E085EB90E00E9420
S1130190480080E10E9451000E94EA0080EE8AB982
S11301A008950E94C30030E620EE809104019091EE
S11301B005010097F1F789EF90E00197F1F700C08E
S11301C000003BB989EF90E00197F1F700C000000F
S11301D02BB9EBCF83EA84BD82E085BD0895CF932C
S11301E0DF93EC01BC01992324F466277727681B6D
S11301F0790B072E000C880B990B0E944E0126EFF9
S113020038E24CE15FE30E94B2010E94160167BD2F
S113021068BDDD231CF480E68BB905C01C161D06E1
S113022014F480EE8BB9DF91CF9108950E941D01E3
S11302306894B1110C94AC0108950E94910188F066
S11302409F5798F0B92F9927B751B0F0E1F0660F96
S1130250771F881F991F1AF0BA95C9F714C0B130D7
S113026091F00E94AB01B1E008950C94AB01672FAB
S1130270782F8827B85F39F0B93FCCF38695779506
S11302806795B395D9F73EF49095809570956195EF
S11302907F4F8F4F9F4F0895E89409C097FB3EF41A
S11302A090958095709561957F4F8F4F9F4F9923BF
S11302B0A9F0F92F96E9BB279395F695879577953D
S11302C06795B795F111F8CFFAF4BB0F11F460FFFD
S11302D01BC06F5F7F4F8F4F9F4F16C0882311F055
S11302E096E911C0772321F09EE8872F762F05C069
S11302F0662371F096E8862F70E060E02AF09A9504
S1130300660F771F881FDAF7880F9695879597F9F8
S1130310089557FD9058440F551F59F05F3F71F0F1
S11303204795880F97FB991F61F09F3F79F0879558
S11303300895121613061406551FF2CF4695F1DFE1
S113034008C0161617061806991FF1CF8695710571
S1130350610508940895E894BB2766277727CB01A5
S113036097F908950E94C5010C9436020E94280250
S113037038F00E942F0220F0952311F00C941F02F4
S11303800C94250211240C94AC010E94890170F391
S1130390959FC1F3950F50E0551F629FF001729F26
S11303A0BB27F00DB11D639FAA27F00DB11DAA1F35
S11303B0649F6627B00DA11D661F829F2227B00D82
S11303C0A11D621F739FB00DA11D621F839FA00D0D
S11303D0611D221F749F3327A00D611D231F849F5D
S11303E0600D211D822F762F6A2F11249F575040B4
S11303F09AF0F1F088234AF0EE0FFF1FBB1F661F2F
S1130400771F881F91505040A9F79E3F510580F0F7
S11304100C941F020C94AC015F3FE4F3983ED4F3B8
S1130420869577956795B795F795E7959F5FC1F79B
S1130430FE2B880F911D9695879597F9089597F946
S11304409F6780E870E060E008959FEF80EC089576
S113045000240A941616170618060906089500249F
S11304600A9412161306140605060895092E039419
S1130470000C11F4882352F0BB0F40F4BF2B11F48D
S113048060FF04C06F5F7F4F8F4F9F4F0895F894B4
S1050490FFCF98
S9030000FC
